{
	"contracts/Staking.sol": {
		"Staking": {
			"abi": [
				{
					"inputs": [
						{
							"internalType": "address",
							"name": "stakingToken",
							"type": "address"
						},
						{
							"internalType": "address",
							"name": "rewardToken",
							"type": "address"
						}
					],
					"stateMutability": "nonpayable",
					"type": "constructor"
				},
				{
					"anonymous": false,
					"inputs": [
						{
							"indexed": true,
							"internalType": "address",
							"name": "user",
							"type": "address"
						},
						{
							"indexed": true,
							"internalType": "uint256",
							"name": "amount",
							"type": "uint256"
						}
					],
					"name": "RewardsClaimed",
					"type": "event"
				},
				{
					"anonymous": false,
					"inputs": [
						{
							"indexed": true,
							"internalType": "address",
							"name": "user",
							"type": "address"
						},
						{
							"indexed": true,
							"internalType": "uint256",
							"name": "amount",
							"type": "uint256"
						}
					],
					"name": "Staked",
					"type": "event"
				},
				{
					"anonymous": false,
					"inputs": [
						{
							"indexed": true,
							"internalType": "address",
							"name": "user",
							"type": "address"
						},
						{
							"indexed": true,
							"internalType": "uint256",
							"name": "amount",
							"type": "uint256"
						}
					],
					"name": "Withdrawn",
					"type": "event"
				},
				{
					"inputs": [],
					"name": "REWARD_RATE",
					"outputs": [
						{
							"internalType": "uint256",
							"name": "",
							"type": "uint256"
						}
					],
					"stateMutability": "view",
					"type": "function"
				},
				{
					"inputs": [
						{
							"internalType": "address",
							"name": "account",
							"type": "address"
						}
					],
					"name": "earned",
					"outputs": [
						{
							"internalType": "uint256",
							"name": "",
							"type": "uint256"
						}
					],
					"stateMutability": "view",
					"type": "function"
				},
				{
					"inputs": [],
					"name": "lastUpdateTime",
					"outputs": [
						{
							"internalType": "uint256",
							"name": "",
							"type": "uint256"
						}
					],
					"stateMutability": "view",
					"type": "function"
				},
				{
					"inputs": [],
					"name": "rewardPerToken",
					"outputs": [
						{
							"internalType": "uint256",
							"name": "",
							"type": "uint256"
						}
					],
					"stateMutability": "view",
					"type": "function"
				},
				{
					"inputs": [],
					"name": "rewardPerTokenStored",
					"outputs": [
						{
							"internalType": "uint256",
							"name": "",
							"type": "uint256"
						}
					],
					"stateMutability": "view",
					"type": "function"
				},
				{
					"inputs": [
						{
							"internalType": "address",
							"name": "",
							"type": "address"
						}
					],
					"name": "rewards",
					"outputs": [
						{
							"internalType": "uint256",
							"name": "",
							"type": "uint256"
						}
					],
					"stateMutability": "view",
					"type": "function"
				},
				{
					"inputs": [],
					"name": "s_rewardToken",
					"outputs": [
						{
							"internalType": "contract IERC20",
							"name": "",
							"type": "address"
						}
					],
					"stateMutability": "view",
					"type": "function"
				},
				{
					"inputs": [],
					"name": "s_stakeingToken",
					"outputs": [
						{
							"internalType": "contract IERC20",
							"name": "",
							"type": "address"
						}
					],
					"stateMutability": "view",
					"type": "function"
				},
				{
					"inputs": [
						{
							"internalType": "address",
							"name": "",
							"type": "address"
						}
					],
					"name": "stakedBalance",
					"outputs": [
						{
							"internalType": "uint256",
							"name": "",
							"type": "uint256"
						}
					],
					"stateMutability": "view",
					"type": "function"
				},
				{
					"inputs": [
						{
							"internalType": "address",
							"name": "",
							"type": "address"
						}
					],
					"name": "useRewardPerTokenPaid",
					"outputs": [
						{
							"internalType": "uint256",
							"name": "",
							"type": "uint256"
						}
					],
					"stateMutability": "view",
					"type": "function"
				}
			],
			"devdoc": {
				"kind": "dev",
				"methods": {},
				"version": 1
			},
			"evm": {
				"assembly": "    /* \"contracts/Staking.sol\":251:1518  contract Staking is ReentrancyGuard {... */\n  mstore(0x40, 0x80)\n    /* \"contracts/Staking.sol\":926:1084  constructor(address stakingToken, address rewardToken) {... */\n  callvalue\n  dup1\n  iszero\n  tag_1\n  jumpi\n  0x00\n  dup1\n  revert\ntag_1:\n  pop\n  mload(0x40)\n  sub(codesize, bytecodeSize)\n  dup1\n  bytecodeSize\n  dup4\n  codecopy\n  dup2\n  dup2\n  add\n  0x40\n  mstore\n  dup2\n  add\n  swap1\n  tag_2\n  swap2\n  swap1\n  tag_3\n  jump\t// in\ntag_2:\n    /* \"@openzeppelin/contracts/security/ReentrancyGuard.sol\":1716:1717  1 */\n  0x01\n    /* \"@openzeppelin/contracts/security/ReentrancyGuard.sol\":1821:1828  _status */\n  0x00\n    /* \"@openzeppelin/contracts/security/ReentrancyGuard.sol\":1821:1843  _status = _NOT_ENTERED */\n  dup2\n  swap1\n  sstore\n  pop\n    /* \"contracts/Staking.sol\":1017:1029  stakingToken */\n  dup2\n    /* \"contracts/Staking.sol\":992:1007  s_stakeingToken */\n  0x01\n  0x00\n    /* \"contracts/Staking.sol\":992:1030  s_stakeingToken = IERC20(stakingToken) */\n  0x0100\n  exp\n  dup2\n  sload\n  dup2\n  0xffffffffffffffffffffffffffffffffffffffff\n  mul\n  not\n  and\n  swap1\n  dup4\n  0xffffffffffffffffffffffffffffffffffffffff\n  and\n  mul\n  or\n  swap1\n  sstore\n  pop\n    /* \"contracts/Staking.sol\":1064:1075  rewardToken */\n  dup1\n    /* \"contracts/Staking.sol\":1041:1054  s_rewardToken */\n  0x02\n  0x00\n    /* \"contracts/Staking.sol\":1041:1076  s_rewardToken = IERC20(rewardToken) */\n  0x0100\n  exp\n  dup2\n  sload\n  dup2\n  0xffffffffffffffffffffffffffffffffffffffff\n  mul\n  not\n  and\n  swap1\n  dup4\n  0xffffffffffffffffffffffffffffffffffffffff\n  and\n  mul\n  or\n  swap1\n  sstore\n  pop\n    /* \"contracts/Staking.sol\":926:1084  constructor(address stakingToken, address rewardToken) {... */\n  pop\n  pop\n    /* \"contracts/Staking.sol\":251:1518  contract Staking is ReentrancyGuard {... */\n  jump(tag_8)\n    /* \"#utility.yul\":88:205   */\ntag_10:\n    /* \"#utility.yul\":197:198   */\n  0x00\n    /* \"#utility.yul\":194:195   */\n  dup1\n    /* \"#utility.yul\":187:199   */\n  revert\n    /* \"#utility.yul\":334:460   */\ntag_12:\n    /* \"#utility.yul\":371:378   */\n  0x00\n    /* \"#utility.yul\":411:453   */\n  0xffffffffffffffffffffffffffffffffffffffff\n    /* \"#utility.yul\":404:409   */\n  dup3\n    /* \"#utility.yul\":400:454   */\n  and\n    /* \"#utility.yul\":389:454   */\n  swap1\n  pop\n    /* \"#utility.yul\":334:460   */\n  swap2\n  swap1\n  pop\n  jump\t// out\n    /* \"#utility.yul\":466:562   */\ntag_13:\n    /* \"#utility.yul\":503:510   */\n  0x00\n    /* \"#utility.yul\":532:556   */\n  tag_22\n    /* \"#utility.yul\":550:555   */\n  dup3\n    /* \"#utility.yul\":532:556   */\n  tag_12\n  jump\t// in\ntag_22:\n    /* \"#utility.yul\":521:556   */\n  swap1\n  pop\n    /* \"#utility.yul\":466:562   */\n  swap2\n  swap1\n  pop\n  jump\t// out\n    /* \"#utility.yul\":568:690   */\ntag_14:\n    /* \"#utility.yul\":641:665   */\n  tag_24\n    /* \"#utility.yul\":659:664   */\n  dup2\n    /* \"#utility.yul\":641:665   */\n  tag_13\n  jump\t// in\ntag_24:\n    /* \"#utility.yul\":634:639   */\n  dup2\n    /* \"#utility.yul\":631:666   */\n  eq\n    /* \"#utility.yul\":621:684   */\n  tag_25\n  jumpi\n    /* \"#utility.yul\":680:681   */\n  0x00\n    /* \"#utility.yul\":677:678   */\n  dup1\n    /* \"#utility.yul\":670:682   */\n  revert\n    /* \"#utility.yul\":621:684   */\ntag_25:\n    /* \"#utility.yul\":568:690   */\n  pop\n  jump\t// out\n    /* \"#utility.yul\":696:839   */\ntag_15:\n    /* \"#utility.yul\":753:758   */\n  0x00\n    /* \"#utility.yul\":784:790   */\n  dup2\n    /* \"#utility.yul\":778:791   */\n  mload\n    /* \"#utility.yul\":769:791   */\n  swap1\n  pop\n    /* \"#utility.yul\":800:833   */\n  tag_27\n    /* \"#utility.yul\":827:832   */\n  dup2\n    /* \"#utility.yul\":800:833   */\n  tag_14\n  jump\t// in\ntag_27:\n    /* \"#utility.yul\":696:839   */\n  swap3\n  swap2\n  pop\n  pop\n  jump\t// out\n    /* \"#utility.yul\":845:1352   */\ntag_3:\n    /* \"#utility.yul\":924:930   */\n  0x00\n    /* \"#utility.yul\":932:938   */\n  dup1\n    /* \"#utility.yul\":981:983   */\n  0x40\n    /* \"#utility.yul\":969:978   */\n  dup4\n    /* \"#utility.yul\":960:967   */\n  dup6\n    /* \"#utility.yul\":956:979   */\n  sub\n    /* \"#utility.yul\":952:984   */\n  slt\n    /* \"#utility.yul\":949:1068   */\n  iszero\n  tag_29\n  jumpi\n    /* \"#utility.yul\":987:1066   */\n  tag_30\n  tag_10\n  jump\t// in\ntag_30:\n    /* \"#utility.yul\":949:1068   */\ntag_29:\n    /* \"#utility.yul\":1107:1108   */\n  0x00\n    /* \"#utility.yul\":1132:1196   */\n  tag_31\n    /* \"#utility.yul\":1188:1195   */\n  dup6\n    /* \"#utility.yul\":1179:1185   */\n  dup3\n    /* \"#utility.yul\":1168:1177   */\n  dup7\n    /* \"#utility.yul\":1164:1186   */\n  add\n    /* \"#utility.yul\":1132:1196   */\n  tag_15\n  jump\t// in\ntag_31:\n    /* \"#utility.yul\":1122:1196   */\n  swap3\n  pop\n    /* \"#utility.yul\":1078:1206   */\n  pop\n    /* \"#utility.yul\":1245:1247   */\n  0x20\n    /* \"#utility.yul\":1271:1335   */\n  tag_32\n    /* \"#utility.yul\":1327:1334   */\n  dup6\n    /* \"#utility.yul\":1318:1324   */\n  dup3\n    /* \"#utility.yul\":1307:1316   */\n  dup7\n    /* \"#utility.yul\":1303:1325   */\n  add\n    /* \"#utility.yul\":1271:1335   */\n  tag_15\n  jump\t// in\ntag_32:\n    /* \"#utility.yul\":1261:1335   */\n  swap2\n  pop\n    /* \"#utility.yul\":1216:1345   */\n  pop\n    /* \"#utility.yul\":845:1352   */\n  swap3\n  pop\n  swap3\n  swap1\n  pop\n  jump\t// out\n    /* \"contracts/Staking.sol\":251:1518  contract Staking is ReentrancyGuard {... */\ntag_8:\n  dataSize(sub_0)\n  dup1\n  dataOffset(sub_0)\n  0x00\n  codecopy\n  0x00\n  return\nstop\n\nsub_0: assembly {\n        /* \"contracts/Staking.sol\":251:1518  contract Staking is ReentrancyGuard {... */\n      mstore(0x40, 0x80)\n      callvalue\n      dup1\n      iszero\n      tag_1\n      jumpi\n      0x00\n      dup1\n      revert\n    tag_1:\n      pop\n      jumpi(tag_2, lt(calldatasize, 0x04))\n      shr(0xe0, calldataload(0x00))\n      dup1\n      0x6374cc00\n      gt\n      tag_13\n      jumpi\n      dup1\n      0x6374cc00\n      eq\n      tag_8\n      jumpi\n      dup1\n      0x6fab4536\n      eq\n      tag_9\n      jumpi\n      dup1\n      0xc8f33c91\n      eq\n      tag_10\n      jumpi\n      dup1\n      0xcd3daf9d\n      eq\n      tag_11\n      jumpi\n      dup1\n      0xdf136d65\n      eq\n      tag_12\n      jumpi\n      jump(tag_2)\n    tag_13:\n      dup1\n      0x8cc262\n      eq\n      tag_3\n      jumpi\n      dup1\n      0x0700037d\n      eq\n      tag_4\n      jumpi\n      dup1\n      0x2cd2a93e\n      eq\n      tag_5\n      jumpi\n      dup1\n      0x5997bb37\n      eq\n      tag_6\n      jumpi\n      dup1\n      0x60217267\n      eq\n      tag_7\n      jumpi\n    tag_2:\n      0x00\n      dup1\n      revert\n        /* \"contracts/Staking.sol\":1434:1511  function earned(address account) public view returns(uint) {... */\n    tag_3:\n      tag_14\n      0x04\n      dup1\n      calldatasize\n      sub\n      dup2\n      add\n      swap1\n      tag_15\n      swap2\n      swap1\n      tag_16\n      jump\t// in\n    tag_15:\n      tag_17\n      jump\t// in\n    tag_14:\n      mload(0x40)\n      tag_18\n      swap2\n      swap1\n      tag_19\n      jump\t// in\n    tag_18:\n      mload(0x40)\n      dup1\n      swap2\n      sub\n      swap1\n      return\n        /* \"contracts/Staking.sol\":606:647  mapping (address=>uint256) public rewards */\n    tag_4:\n      tag_20\n      0x04\n      dup1\n      calldatasize\n      sub\n      dup2\n      add\n      swap1\n      tag_21\n      swap2\n      swap1\n      tag_16\n      jump\t// in\n    tag_21:\n      tag_22\n      jump\t// in\n    tag_20:\n      mload(0x40)\n      tag_23\n      swap2\n      swap1\n      tag_19\n      jump\t// in\n    tag_23:\n      mload(0x40)\n      dup1\n      swap2\n      sub\n      swap1\n      return\n        /* \"contracts/Staking.sol\":654:709  mapping (address=>uint256) public useRewardPerTokenPaid */\n    tag_5:\n      tag_24\n      0x04\n      dup1\n      calldatasize\n      sub\n      dup2\n      add\n      swap1\n      tag_25\n      swap2\n      swap1\n      tag_16\n      jump\t// in\n    tag_25:\n      tag_26\n      jump\t// in\n    tag_24:\n      mload(0x40)\n      tag_27\n      swap2\n      swap1\n      tag_19\n      jump\t// in\n    tag_27:\n      mload(0x40)\n      dup1\n      swap2\n      sub\n      swap1\n      return\n        /* \"contracts/Staking.sol\":399:434  uint public constant REWARD_RATE=10 */\n    tag_6:\n      tag_28\n      tag_29\n      jump\t// in\n    tag_28:\n      mload(0x40)\n      tag_30\n      swap2\n      swap1\n      tag_19\n      jump\t// in\n    tag_30:\n      mload(0x40)\n      dup1\n      swap2\n      sub\n      swap1\n      return\n        /* \"contracts/Staking.sol\":552:599  mapping (address=>uint256) public stakedBalance */\n    tag_7:\n      tag_31\n      0x04\n      dup1\n      calldatasize\n      sub\n      dup2\n      add\n      swap1\n      tag_32\n      swap2\n      swap1\n      tag_16\n      jump\t// in\n    tag_32:\n      tag_33\n      jump\t// in\n    tag_31:\n      mload(0x40)\n      tag_34\n      swap2\n      swap1\n      tag_19\n      jump\t// in\n    tag_34:\n      mload(0x40)\n      dup1\n      swap2\n      sub\n      swap1\n      return\n        /* \"contracts/Staking.sol\":363:390  IERC20 public s_rewardToken */\n    tag_8:\n      tag_35\n      tag_36\n      jump\t// in\n    tag_35:\n      mload(0x40)\n      tag_37\n      swap2\n      swap1\n      tag_38\n      jump\t// in\n    tag_37:\n      mload(0x40)\n      dup1\n      swap2\n      sub\n      swap1\n      return\n        /* \"contracts/Staking.sol\":327:356  IERC20 public s_stakeingToken */\n    tag_9:\n      tag_39\n      tag_40\n      jump\t// in\n    tag_39:\n      mload(0x40)\n      tag_41\n      swap2\n      swap1\n      tag_38\n      jump\t// in\n    tag_41:\n      mload(0x40)\n      dup1\n      swap2\n      sub\n      swap1\n      return\n        /* \"contracts/Staking.sol\":517:543  uint public lastUpdateTime */\n    tag_10:\n      tag_42\n      tag_43\n      jump\t// in\n    tag_42:\n      mload(0x40)\n      tag_44\n      swap2\n      swap1\n      tag_19\n      jump\t// in\n    tag_44:\n      mload(0x40)\n      dup1\n      swap2\n      sub\n      swap1\n      return\n        /* \"contracts/Staking.sol\":1092:1426  function rewardPerToken() public view returns(uint) {... */\n    tag_11:\n      tag_45\n      tag_46\n      jump\t// in\n    tag_45:\n      mload(0x40)\n      tag_47\n      swap2\n      swap1\n      tag_19\n      jump\t// in\n    tag_47:\n      mload(0x40)\n      dup1\n      swap2\n      sub\n      swap1\n      return\n        /* \"contracts/Staking.sol\":478:510  uint public rewardPerTokenStored */\n    tag_12:\n      tag_48\n      tag_49\n      jump\t// in\n    tag_48:\n      mload(0x40)\n      tag_50\n      swap2\n      swap1\n      tag_19\n      jump\t// in\n    tag_50:\n      mload(0x40)\n      dup1\n      swap2\n      sub\n      swap1\n      return\n        /* \"contracts/Staking.sol\":1434:1511  function earned(address account) public view returns(uint) {... */\n    tag_17:\n        /* \"contracts/Staking.sol\":1487:1491  uint */\n      0x00\n        /* \"contracts/Staking.sol\":1434:1511  function earned(address account) public view returns(uint) {... */\n      swap2\n      swap1\n      pop\n      jump\t// out\n        /* \"contracts/Staking.sol\":606:647  mapping (address=>uint256) public rewards */\n    tag_22:\n      mstore(0x20, 0x07)\n      dup1\n      0x00\n      mstore\n      keccak256(0x00, 0x40)\n      0x00\n      swap2\n      pop\n      swap1\n      pop\n      sload\n      dup2\n      jump\t// out\n        /* \"contracts/Staking.sol\":654:709  mapping (address=>uint256) public useRewardPerTokenPaid */\n    tag_26:\n      mstore(0x20, 0x08)\n      dup1\n      0x00\n      mstore\n      keccak256(0x00, 0x40)\n      0x00\n      swap2\n      pop\n      swap1\n      pop\n      sload\n      dup2\n      jump\t// out\n        /* \"contracts/Staking.sol\":399:434  uint public constant REWARD_RATE=10 */\n    tag_29:\n        /* \"contracts/Staking.sol\":432:434  10 */\n      0x0a\n        /* \"contracts/Staking.sol\":399:434  uint public constant REWARD_RATE=10 */\n      dup2\n      jump\t// out\n        /* \"contracts/Staking.sol\":552:599  mapping (address=>uint256) public stakedBalance */\n    tag_33:\n      mstore(0x20, 0x06)\n      dup1\n      0x00\n      mstore\n      keccak256(0x00, 0x40)\n      0x00\n      swap2\n      pop\n      swap1\n      pop\n      sload\n      dup2\n      jump\t// out\n        /* \"contracts/Staking.sol\":363:390  IERC20 public s_rewardToken */\n    tag_36:\n      0x02\n      0x00\n      swap1\n      sload\n      swap1\n      0x0100\n      exp\n      swap1\n      div\n      0xffffffffffffffffffffffffffffffffffffffff\n      and\n      dup2\n      jump\t// out\n        /* \"contracts/Staking.sol\":327:356  IERC20 public s_stakeingToken */\n    tag_40:\n      0x01\n      0x00\n      swap1\n      sload\n      swap1\n      0x0100\n      exp\n      swap1\n      div\n      0xffffffffffffffffffffffffffffffffffffffff\n      and\n      dup2\n      jump\t// out\n        /* \"contracts/Staking.sol\":517:543  uint public lastUpdateTime */\n    tag_43:\n      sload(0x05)\n      dup2\n      jump\t// out\n        /* \"contracts/Staking.sol\":1092:1426  function rewardPerToken() public view returns(uint) {... */\n    tag_46:\n        /* \"contracts/Staking.sol\":1138:1142  uint */\n      0x00\n        /* \"contracts/Staking.sol\":1179:1180  0 */\n      dup1\n        /* \"contracts/Staking.sol\":1158:1175  totalStakedTokens */\n      sload(0x03)\n        /* \"contracts/Staking.sol\":1158:1180  totalStakedTokens == 0 */\n      sub\n        /* \"contracts/Staking.sol\":1155:1236  if(totalStakedTokens == 0) {... */\n      tag_53\n      jumpi\n        /* \"contracts/Staking.sol\":1204:1224  rewardPerTokenStored */\n      sload(0x04)\n        /* \"contracts/Staking.sol\":1197:1224  return rewardPerTokenStored */\n      swap1\n      pop\n      jump(tag_52)\n        /* \"contracts/Staking.sol\":1155:1236  if(totalStakedTokens == 0) {... */\n    tag_53:\n        /* \"contracts/Staking.sol\":1248:1262  uint totalTime */\n      0x00\n        /* \"contracts/Staking.sol\":1281:1295  lastUpdateTime */\n      sload(0x05)\n        /* \"contracts/Staking.sol\":1265:1280  block.timestamp */\n      timestamp\n        /* \"contracts/Staking.sol\":1265:1295  block.timestamp-lastUpdateTime */\n      tag_54\n      swap2\n      swap1\n      tag_55\n      jump\t// in\n    tag_54:\n        /* \"contracts/Staking.sol\":1248:1295  uint totalTime = block.timestamp-lastUpdateTime */\n      swap1\n      pop\n        /* \"contracts/Staking.sol\":1306:1323  uint totalRewards */\n      0x00\n        /* \"contracts/Staking.sol\":1338:1347  totalTime */\n      dup2\n        /* \"contracts/Staking.sol\":432:434  10 */\n      0x0a\n        /* \"contracts/Staking.sol\":1326:1347  REWARD_RATE*totalTime */\n      tag_56\n      swap2\n      swap1\n      tag_57\n      jump\t// in\n    tag_56:\n        /* \"contracts/Staking.sol\":1306:1347  uint totalRewards = REWARD_RATE*totalTime */\n      swap1\n      pop\n        /* \"contracts/Staking.sol\":1401:1418  totalStakedTokens */\n      sload(0x03)\n        /* \"contracts/Staking.sol\":1388:1400  totalRewards */\n      dup2\n        /* \"contracts/Staking.sol\":1388:1418  totalRewards/totalStakedTokens */\n      tag_58\n      swap2\n      swap1\n      tag_59\n      jump\t// in\n    tag_58:\n        /* \"contracts/Staking.sol\":1365:1385  rewardPerTokenStored */\n      sload(0x04)\n        /* \"contracts/Staking.sol\":1365:1418  rewardPerTokenStored + totalRewards/totalStakedTokens */\n      tag_60\n      swap2\n      swap1\n      tag_61\n      jump\t// in\n    tag_60:\n        /* \"contracts/Staking.sol\":1358:1418  return rewardPerTokenStored + totalRewards/totalStakedTokens */\n      swap3\n      pop\n      pop\n      pop\n        /* \"contracts/Staking.sol\":1092:1426  function rewardPerToken() public view returns(uint) {... */\n    tag_52:\n      swap1\n      jump\t// out\n        /* \"contracts/Staking.sol\":478:510  uint public rewardPerTokenStored */\n    tag_49:\n      sload(0x04)\n      dup2\n      jump\t// out\n        /* \"#utility.yul\":88:205   */\n    tag_63:\n        /* \"#utility.yul\":197:198   */\n      0x00\n        /* \"#utility.yul\":194:195   */\n      dup1\n        /* \"#utility.yul\":187:199   */\n      revert\n        /* \"#utility.yul\":334:460   */\n    tag_65:\n        /* \"#utility.yul\":371:378   */\n      0x00\n        /* \"#utility.yul\":411:453   */\n      0xffffffffffffffffffffffffffffffffffffffff\n        /* \"#utility.yul\":404:409   */\n      dup3\n        /* \"#utility.yul\":400:454   */\n      and\n        /* \"#utility.yul\":389:454   */\n      swap1\n      pop\n        /* \"#utility.yul\":334:460   */\n      swap2\n      swap1\n      pop\n      jump\t// out\n        /* \"#utility.yul\":466:562   */\n    tag_66:\n        /* \"#utility.yul\":503:510   */\n      0x00\n        /* \"#utility.yul\":532:556   */\n      tag_84\n        /* \"#utility.yul\":550:555   */\n      dup3\n        /* \"#utility.yul\":532:556   */\n      tag_65\n      jump\t// in\n    tag_84:\n        /* \"#utility.yul\":521:556   */\n      swap1\n      pop\n        /* \"#utility.yul\":466:562   */\n      swap2\n      swap1\n      pop\n      jump\t// out\n        /* \"#utility.yul\":568:690   */\n    tag_67:\n        /* \"#utility.yul\":641:665   */\n      tag_86\n        /* \"#utility.yul\":659:664   */\n      dup2\n        /* \"#utility.yul\":641:665   */\n      tag_66\n      jump\t// in\n    tag_86:\n        /* \"#utility.yul\":634:639   */\n      dup2\n        /* \"#utility.yul\":631:666   */\n      eq\n        /* \"#utility.yul\":621:684   */\n      tag_87\n      jumpi\n        /* \"#utility.yul\":680:681   */\n      0x00\n        /* \"#utility.yul\":677:678   */\n      dup1\n        /* \"#utility.yul\":670:682   */\n      revert\n        /* \"#utility.yul\":621:684   */\n    tag_87:\n        /* \"#utility.yul\":568:690   */\n      pop\n      jump\t// out\n        /* \"#utility.yul\":696:835   */\n    tag_68:\n        /* \"#utility.yul\":742:747   */\n      0x00\n        /* \"#utility.yul\":780:786   */\n      dup2\n        /* \"#utility.yul\":767:787   */\n      calldataload\n        /* \"#utility.yul\":758:787   */\n      swap1\n      pop\n        /* \"#utility.yul\":796:829   */\n      tag_89\n        /* \"#utility.yul\":823:828   */\n      dup2\n        /* \"#utility.yul\":796:829   */\n      tag_67\n      jump\t// in\n    tag_89:\n        /* \"#utility.yul\":696:835   */\n      swap3\n      swap2\n      pop\n      pop\n      jump\t// out\n        /* \"#utility.yul\":841:1170   */\n    tag_16:\n        /* \"#utility.yul\":900:906   */\n      0x00\n        /* \"#utility.yul\":949:951   */\n      0x20\n        /* \"#utility.yul\":937:946   */\n      dup3\n        /* \"#utility.yul\":928:935   */\n      dup5\n        /* \"#utility.yul\":924:947   */\n      sub\n        /* \"#utility.yul\":920:952   */\n      slt\n        /* \"#utility.yul\":917:1036   */\n      iszero\n      tag_91\n      jumpi\n        /* \"#utility.yul\":955:1034   */\n      tag_92\n      tag_63\n      jump\t// in\n    tag_92:\n        /* \"#utility.yul\":917:1036   */\n    tag_91:\n        /* \"#utility.yul\":1075:1076   */\n      0x00\n        /* \"#utility.yul\":1100:1153   */\n      tag_93\n        /* \"#utility.yul\":1145:1152   */\n      dup5\n        /* \"#utility.yul\":1136:1142   */\n      dup3\n        /* \"#utility.yul\":1125:1134   */\n      dup6\n        /* \"#utility.yul\":1121:1143   */\n      add\n        /* \"#utility.yul\":1100:1153   */\n      tag_68\n      jump\t// in\n    tag_93:\n        /* \"#utility.yul\":1090:1153   */\n      swap2\n      pop\n        /* \"#utility.yul\":1046:1163   */\n      pop\n        /* \"#utility.yul\":841:1170   */\n      swap3\n      swap2\n      pop\n      pop\n      jump\t// out\n        /* \"#utility.yul\":1176:1253   */\n    tag_69:\n        /* \"#utility.yul\":1213:1220   */\n      0x00\n        /* \"#utility.yul\":1242:1247   */\n      dup2\n        /* \"#utility.yul\":1231:1247   */\n      swap1\n      pop\n        /* \"#utility.yul\":1176:1253   */\n      swap2\n      swap1\n      pop\n      jump\t// out\n        /* \"#utility.yul\":1259:1377   */\n    tag_70:\n        /* \"#utility.yul\":1346:1370   */\n      tag_96\n        /* \"#utility.yul\":1364:1369   */\n      dup2\n        /* \"#utility.yul\":1346:1370   */\n      tag_69\n      jump\t// in\n    tag_96:\n        /* \"#utility.yul\":1341:1344   */\n      dup3\n        /* \"#utility.yul\":1334:1371   */\n      mstore\n        /* \"#utility.yul\":1259:1377   */\n      pop\n      pop\n      jump\t// out\n        /* \"#utility.yul\":1383:1605   */\n    tag_19:\n        /* \"#utility.yul\":1476:1480   */\n      0x00\n        /* \"#utility.yul\":1514:1516   */\n      0x20\n        /* \"#utility.yul\":1503:1512   */\n      dup3\n        /* \"#utility.yul\":1499:1517   */\n      add\n        /* \"#utility.yul\":1491:1517   */\n      swap1\n      pop\n        /* \"#utility.yul\":1527:1598   */\n      tag_98\n        /* \"#utility.yul\":1595:1596   */\n      0x00\n        /* \"#utility.yul\":1584:1593   */\n      dup4\n        /* \"#utility.yul\":1580:1597   */\n      add\n        /* \"#utility.yul\":1571:1577   */\n      dup5\n        /* \"#utility.yul\":1527:1598   */\n      tag_70\n      jump\t// in\n    tag_98:\n        /* \"#utility.yul\":1383:1605   */\n      swap3\n      swap2\n      pop\n      pop\n      jump\t// out\n        /* \"#utility.yul\":1611:1671   */\n    tag_71:\n        /* \"#utility.yul\":1639:1642   */\n      0x00\n        /* \"#utility.yul\":1660:1665   */\n      dup2\n        /* \"#utility.yul\":1653:1665   */\n      swap1\n      pop\n        /* \"#utility.yul\":1611:1671   */\n      swap2\n      swap1\n      pop\n      jump\t// out\n        /* \"#utility.yul\":1677:1819   */\n    tag_72:\n        /* \"#utility.yul\":1727:1736   */\n      0x00\n        /* \"#utility.yul\":1760:1813   */\n      tag_101\n        /* \"#utility.yul\":1778:1812   */\n      tag_102\n        /* \"#utility.yul\":1787:1811   */\n      tag_103\n        /* \"#utility.yul\":1805:1810   */\n      dup5\n        /* \"#utility.yul\":1787:1811   */\n      tag_65\n      jump\t// in\n    tag_103:\n        /* \"#utility.yul\":1778:1812   */\n      tag_71\n      jump\t// in\n    tag_102:\n        /* \"#utility.yul\":1760:1813   */\n      tag_65\n      jump\t// in\n    tag_101:\n        /* \"#utility.yul\":1747:1813   */\n      swap1\n      pop\n        /* \"#utility.yul\":1677:1819   */\n      swap2\n      swap1\n      pop\n      jump\t// out\n        /* \"#utility.yul\":1825:1951   */\n    tag_73:\n        /* \"#utility.yul\":1875:1884   */\n      0x00\n        /* \"#utility.yul\":1908:1945   */\n      tag_105\n        /* \"#utility.yul\":1939:1944   */\n      dup3\n        /* \"#utility.yul\":1908:1945   */\n      tag_72\n      jump\t// in\n    tag_105:\n        /* \"#utility.yul\":1895:1945   */\n      swap1\n      pop\n        /* \"#utility.yul\":1825:1951   */\n      swap2\n      swap1\n      pop\n      jump\t// out\n        /* \"#utility.yul\":1957:2097   */\n    tag_74:\n        /* \"#utility.yul\":2021:2030   */\n      0x00\n        /* \"#utility.yul\":2054:2091   */\n      tag_107\n        /* \"#utility.yul\":2085:2090   */\n      dup3\n        /* \"#utility.yul\":2054:2091   */\n      tag_73\n      jump\t// in\n    tag_107:\n        /* \"#utility.yul\":2041:2091   */\n      swap1\n      pop\n        /* \"#utility.yul\":1957:2097   */\n      swap2\n      swap1\n      pop\n      jump\t// out\n        /* \"#utility.yul\":2103:2262   */\n    tag_75:\n        /* \"#utility.yul\":2204:2255   */\n      tag_109\n        /* \"#utility.yul\":2249:2254   */\n      dup2\n        /* \"#utility.yul\":2204:2255   */\n      tag_74\n      jump\t// in\n    tag_109:\n        /* \"#utility.yul\":2199:2202   */\n      dup3\n        /* \"#utility.yul\":2192:2256   */\n      mstore\n        /* \"#utility.yul\":2103:2262   */\n      pop\n      pop\n      jump\t// out\n        /* \"#utility.yul\":2268:2518   */\n    tag_38:\n        /* \"#utility.yul\":2375:2379   */\n      0x00\n        /* \"#utility.yul\":2413:2415   */\n      0x20\n        /* \"#utility.yul\":2402:2411   */\n      dup3\n        /* \"#utility.yul\":2398:2416   */\n      add\n        /* \"#utility.yul\":2390:2416   */\n      swap1\n      pop\n        /* \"#utility.yul\":2426:2511   */\n      tag_111\n        /* \"#utility.yul\":2508:2509   */\n      0x00\n        /* \"#utility.yul\":2497:2506   */\n      dup4\n        /* \"#utility.yul\":2493:2510   */\n      add\n        /* \"#utility.yul\":2484:2490   */\n      dup5\n        /* \"#utility.yul\":2426:2511   */\n      tag_75\n      jump\t// in\n    tag_111:\n        /* \"#utility.yul\":2268:2518   */\n      swap3\n      swap2\n      pop\n      pop\n      jump\t// out\n        /* \"#utility.yul\":2524:2704   */\n    tag_76:\n        /* \"#utility.yul\":2572:2649   */\n      0x4e487b7100000000000000000000000000000000000000000000000000000000\n        /* \"#utility.yul\":2569:2570   */\n      0x00\n        /* \"#utility.yul\":2562:2650   */\n      mstore\n        /* \"#utility.yul\":2669:2673   */\n      0x11\n        /* \"#utility.yul\":2666:2667   */\n      0x04\n        /* \"#utility.yul\":2659:2674   */\n      mstore\n        /* \"#utility.yul\":2693:2697   */\n      0x24\n        /* \"#utility.yul\":2690:2691   */\n      0x00\n        /* \"#utility.yul\":2683:2698   */\n      revert\n        /* \"#utility.yul\":2710:2904   */\n    tag_55:\n        /* \"#utility.yul\":2750:2754   */\n      0x00\n        /* \"#utility.yul\":2770:2790   */\n      tag_114\n        /* \"#utility.yul\":2788:2789   */\n      dup3\n        /* \"#utility.yul\":2770:2790   */\n      tag_69\n      jump\t// in\n    tag_114:\n        /* \"#utility.yul\":2765:2790   */\n      swap2\n      pop\n        /* \"#utility.yul\":2804:2824   */\n      tag_115\n        /* \"#utility.yul\":2822:2823   */\n      dup4\n        /* \"#utility.yul\":2804:2824   */\n      tag_69\n      jump\t// in\n    tag_115:\n        /* \"#utility.yul\":2799:2824   */\n      swap3\n      pop\n        /* \"#utility.yul\":2848:2849   */\n      dup3\n        /* \"#utility.yul\":2845:2846   */\n      dup3\n        /* \"#utility.yul\":2841:2850   */\n      sub\n        /* \"#utility.yul\":2833:2850   */\n      swap1\n      pop\n        /* \"#utility.yul\":2872:2873   */\n      dup2\n        /* \"#utility.yul\":2866:2870   */\n      dup2\n        /* \"#utility.yul\":2863:2874   */\n      gt\n        /* \"#utility.yul\":2860:2897   */\n      iszero\n      tag_116\n      jumpi\n        /* \"#utility.yul\":2877:2895   */\n      tag_117\n      tag_76\n      jump\t// in\n    tag_117:\n        /* \"#utility.yul\":2860:2897   */\n    tag_116:\n        /* \"#utility.yul\":2710:2904   */\n      swap3\n      swap2\n      pop\n      pop\n      jump\t// out\n        /* \"#utility.yul\":2910:3320   */\n    tag_57:\n        /* \"#utility.yul\":2950:2957   */\n      0x00\n        /* \"#utility.yul\":2973:2993   */\n      tag_119\n        /* \"#utility.yul\":2991:2992   */\n      dup3\n        /* \"#utility.yul\":2973:2993   */\n      tag_69\n      jump\t// in\n    tag_119:\n        /* \"#utility.yul\":2968:2993   */\n      swap2\n      pop\n        /* \"#utility.yul\":3007:3027   */\n      tag_120\n        /* \"#utility.yul\":3025:3026   */\n      dup4\n        /* \"#utility.yul\":3007:3027   */\n      tag_69\n      jump\t// in\n    tag_120:\n        /* \"#utility.yul\":3002:3027   */\n      swap3\n      pop\n        /* \"#utility.yul\":3062:3063   */\n      dup3\n        /* \"#utility.yul\":3059:3060   */\n      dup3\n        /* \"#utility.yul\":3055:3064   */\n      mul\n        /* \"#utility.yul\":3084:3114   */\n      tag_121\n        /* \"#utility.yul\":3102:3113   */\n      dup2\n        /* \"#utility.yul\":3084:3114   */\n      tag_69\n      jump\t// in\n    tag_121:\n        /* \"#utility.yul\":3073:3114   */\n      swap2\n      pop\n        /* \"#utility.yul\":3263:3264   */\n      dup3\n        /* \"#utility.yul\":3254:3261   */\n      dup3\n        /* \"#utility.yul\":3250:3265   */\n      div\n        /* \"#utility.yul\":3247:3248   */\n      dup5\n        /* \"#utility.yul\":3244:3266   */\n      eq\n        /* \"#utility.yul\":3224:3225   */\n      dup4\n        /* \"#utility.yul\":3217:3226   */\n      iszero\n        /* \"#utility.yul\":3197:3280   */\n      or\n        /* \"#utility.yul\":3174:3313   */\n      tag_122\n      jumpi\n        /* \"#utility.yul\":3293:3311   */\n      tag_123\n      tag_76\n      jump\t// in\n    tag_123:\n        /* \"#utility.yul\":3174:3313   */\n    tag_122:\n        /* \"#utility.yul\":2958:3320   */\n      pop\n        /* \"#utility.yul\":2910:3320   */\n      swap3\n      swap2\n      pop\n      pop\n      jump\t// out\n        /* \"#utility.yul\":3326:3506   */\n    tag_77:\n        /* \"#utility.yul\":3374:3451   */\n      0x4e487b7100000000000000000000000000000000000000000000000000000000\n        /* \"#utility.yul\":3371:3372   */\n      0x00\n        /* \"#utility.yul\":3364:3452   */\n      mstore\n        /* \"#utility.yul\":3471:3475   */\n      0x12\n        /* \"#utility.yul\":3468:3469   */\n      0x04\n        /* \"#utility.yul\":3461:3476   */\n      mstore\n        /* \"#utility.yul\":3495:3499   */\n      0x24\n        /* \"#utility.yul\":3492:3493   */\n      0x00\n        /* \"#utility.yul\":3485:3500   */\n      revert\n        /* \"#utility.yul\":3512:3697   */\n    tag_59:\n        /* \"#utility.yul\":3552:3553   */\n      0x00\n        /* \"#utility.yul\":3569:3589   */\n      tag_126\n        /* \"#utility.yul\":3587:3588   */\n      dup3\n        /* \"#utility.yul\":3569:3589   */\n      tag_69\n      jump\t// in\n    tag_126:\n        /* \"#utility.yul\":3564:3589   */\n      swap2\n      pop\n        /* \"#utility.yul\":3603:3623   */\n      tag_127\n        /* \"#utility.yul\":3621:3622   */\n      dup4\n        /* \"#utility.yul\":3603:3623   */\n      tag_69\n      jump\t// in\n    tag_127:\n        /* \"#utility.yul\":3598:3623   */\n      swap3\n      pop\n        /* \"#utility.yul\":3642:3643   */\n      dup3\n        /* \"#utility.yul\":3632:3667   */\n      tag_128\n      jumpi\n        /* \"#utility.yul\":3647:3665   */\n      tag_129\n      tag_77\n      jump\t// in\n    tag_129:\n        /* \"#utility.yul\":3632:3667   */\n    tag_128:\n        /* \"#utility.yul\":3689:3690   */\n      dup3\n        /* \"#utility.yul\":3686:3687   */\n      dup3\n        /* \"#utility.yul\":3682:3691   */\n      div\n        /* \"#utility.yul\":3677:3691   */\n      swap1\n      pop\n        /* \"#utility.yul\":3512:3697   */\n      swap3\n      swap2\n      pop\n      pop\n      jump\t// out\n        /* \"#utility.yul\":3703:3894   */\n    tag_61:\n        /* \"#utility.yul\":3743:3746   */\n      0x00\n        /* \"#utility.yul\":3762:3782   */\n      tag_131\n        /* \"#utility.yul\":3780:3781   */\n      dup3\n        /* \"#utility.yul\":3762:3782   */\n      tag_69\n      jump\t// in\n    tag_131:\n        /* \"#utility.yul\":3757:3782   */\n      swap2\n      pop\n        /* \"#utility.yul\":3796:3816   */\n      tag_132\n        /* \"#utility.yul\":3814:3815   */\n      dup4\n        /* \"#utility.yul\":3796:3816   */\n      tag_69\n      jump\t// in\n    tag_132:\n        /* \"#utility.yul\":3791:3816   */\n      swap3\n      pop\n        /* \"#utility.yul\":3839:3840   */\n      dup3\n        /* \"#utility.yul\":3836:3837   */\n      dup3\n        /* \"#utility.yul\":3832:3841   */\n      add\n        /* \"#utility.yul\":3825:3841   */\n      swap1\n      pop\n        /* \"#utility.yul\":3860:3863   */\n      dup1\n        /* \"#utility.yul\":3857:3858   */\n      dup3\n        /* \"#utility.yul\":3854:3864   */\n      gt\n        /* \"#utility.yul\":3851:3887   */\n      iszero\n      tag_133\n      jumpi\n        /* \"#utility.yul\":3867:3885   */\n      tag_134\n      tag_76\n      jump\t// in\n    tag_134:\n        /* \"#utility.yul\":3851:3887   */\n    tag_133:\n        /* \"#utility.yul\":3703:3894   */\n      swap3\n      swap2\n      pop\n      pop\n      jump\t// out\n\n    auxdata: 0xa2646970667358221220635f0664d26e17cf381b2e99c5395e09ea68f16522e49e0564e12c1b848e058464736f6c63430008170033\n}\n",
				"bytecode": {
					"linkReferences": {},
					"object": "608060405234801561000f575f80fd5b506040516107083803806107088339818101604052810190610031919061011d565b60015f819055508160015f6101000a81548173ffffffffffffffffffffffffffffffffffffffff021916908373ffffffffffffffffffffffffffffffffffffffff1602179055508060025f6101000a81548173ffffffffffffffffffffffffffffffffffffffff021916908373ffffffffffffffffffffffffffffffffffffffff160217905550505061015b565b5f80fd5b5f73ffffffffffffffffffffffffffffffffffffffff82169050919050565b5f6100ec826100c3565b9050919050565b6100fc816100e2565b8114610106575f80fd5b50565b5f81519050610117816100f3565b92915050565b5f8060408385031215610133576101326100bf565b5b5f61014085828601610109565b925050602061015185828601610109565b9150509250929050565b6105a0806101685f395ff3fe608060405234801561000f575f80fd5b506004361061009b575f3560e01c80636374cc00116100645780636374cc001461017d5780636fab45361461019b578063c8f33c91146101b9578063cd3daf9d146101d7578063df136d65146101f55761009b565b80628cc2621461009f5780630700037d146100cf5780632cd2a93e146100ff5780635997bb371461012f578063602172671461014d575b5f80fd5b6100b960048036038101906100b49190610369565b610213565b6040516100c691906103ac565b60405180910390f35b6100e960048036038101906100e49190610369565b610219565b6040516100f691906103ac565b60405180910390f35b61011960048036038101906101149190610369565b61022e565b60405161012691906103ac565b60405180910390f35b610137610243565b60405161014491906103ac565b60405180910390f35b61016760048036038101906101629190610369565b610248565b60405161017491906103ac565b60405180910390f35b61018561025d565b6040516101929190610420565b60405180910390f35b6101a3610282565b6040516101b09190610420565b60405180910390f35b6101c16102a7565b6040516101ce91906103ac565b60405180910390f35b6101df6102ad565b6040516101ec91906103ac565b60405180910390f35b6101fd610305565b60405161020a91906103ac565b60405180910390f35b5f919050565b6007602052805f5260405f205f915090505481565b6008602052805f5260405f205f915090505481565b600a81565b6006602052805f5260405f205f915090505481565b60025f9054906101000a900473ffffffffffffffffffffffffffffffffffffffff1681565b60015f9054906101000a900473ffffffffffffffffffffffffffffffffffffffff1681565b60055481565b5f80600354036102c1576004549050610302565b5f600554426102d09190610466565b90505f81600a6102e09190610499565b9050600354816102f09190610507565b6004546102fd9190610537565b925050505b90565b60045481565b5f80fd5b5f73ffffffffffffffffffffffffffffffffffffffff82169050919050565b5f6103388261030f565b9050919050565b6103488161032e565b8114610352575f80fd5b50565b5f813590506103638161033f565b92915050565b5f6020828403121561037e5761037d61030b565b5b5f61038b84828501610355565b91505092915050565b5f819050919050565b6103a681610394565b82525050565b5f6020820190506103bf5f83018461039d565b92915050565b5f819050919050565b5f6103e86103e36103de8461030f565b6103c5565b61030f565b9050919050565b5f6103f9826103ce565b9050919050565b5f61040a826103ef565b9050919050565b61041a81610400565b82525050565b5f6020820190506104335f830184610411565b92915050565b7f4e487b71000000000000000000000000000000000000000000000000000000005f52601160045260245ffd5b5f61047082610394565b915061047b83610394565b925082820390508181111561049357610492610439565b5b92915050565b5f6104a382610394565b91506104ae83610394565b92508282026104bc81610394565b915082820484148315176104d3576104d2610439565b5b5092915050565b7f4e487b71000000000000000000000000000000000000000000000000000000005f52601260045260245ffd5b5f61051182610394565b915061051c83610394565b92508261052c5761052b6104da565b5b828204905092915050565b5f61054182610394565b915061054c83610394565b925082820190508082111561056457610563610439565b5b9291505056fea2646970667358221220635f0664d26e17cf381b2e99c5395e09ea68f16522e49e0564e12c1b848e058464736f6c63430008170033",
					"opcodes": "PUSH1 0x80 PUSH1 0x40 MSTORE CALLVALUE DUP1 ISZERO PUSH2 0xF JUMPI PUSH0 DUP1 REVERT JUMPDEST POP PUSH1 0x40 MLOAD PUSH2 0x708 CODESIZE SUB DUP1 PUSH2 0x708 DUP4 CODECOPY DUP2 DUP2 ADD PUSH1 0x40 MSTORE DUP2 ADD SWAP1 PUSH2 0x31 SWAP2 SWAP1 PUSH2 0x11D JUMP JUMPDEST PUSH1 0x1 PUSH0 DUP2 SWAP1 SSTORE POP DUP2 PUSH1 0x1 PUSH0 PUSH2 0x100 EXP DUP2 SLOAD DUP2 PUSH20 0xFFFFFFFFFFFFFFFFFFFFFFFFFFFFFFFFFFFFFFFF MUL NOT AND SWAP1 DUP4 PUSH20 0xFFFFFFFFFFFFFFFFFFFFFFFFFFFFFFFFFFFFFFFF AND MUL OR SWAP1 SSTORE POP DUP1 PUSH1 0x2 PUSH0 PUSH2 0x100 EXP DUP2 SLOAD DUP2 PUSH20 0xFFFFFFFFFFFFFFFFFFFFFFFFFFFFFFFFFFFFFFFF MUL NOT AND SWAP1 DUP4 PUSH20 0xFFFFFFFFFFFFFFFFFFFFFFFFFFFFFFFFFFFFFFFF AND MUL OR SWAP1 SSTORE POP POP POP PUSH2 0x15B JUMP JUMPDEST PUSH0 DUP1 REVERT JUMPDEST PUSH0 PUSH20 0xFFFFFFFFFFFFFFFFFFFFFFFFFFFFFFFFFFFFFFFF DUP3 AND SWAP1 POP SWAP2 SWAP1 POP JUMP JUMPDEST PUSH0 PUSH2 0xEC DUP3 PUSH2 0xC3 JUMP JUMPDEST SWAP1 POP SWAP2 SWAP1 POP JUMP JUMPDEST PUSH2 0xFC DUP2 PUSH2 0xE2 JUMP JUMPDEST DUP2 EQ PUSH2 0x106 JUMPI PUSH0 DUP1 REVERT JUMPDEST POP JUMP JUMPDEST PUSH0 DUP2 MLOAD SWAP1 POP PUSH2 0x117 DUP2 PUSH2 0xF3 JUMP JUMPDEST SWAP3 SWAP2 POP POP JUMP JUMPDEST PUSH0 DUP1 PUSH1 0x40 DUP4 DUP6 SUB SLT ISZERO PUSH2 0x133 JUMPI PUSH2 0x132 PUSH2 0xBF JUMP JUMPDEST JUMPDEST PUSH0 PUSH2 0x140 DUP6 DUP3 DUP7 ADD PUSH2 0x109 JUMP JUMPDEST SWAP3 POP POP PUSH1 0x20 PUSH2 0x151 DUP6 DUP3 DUP7 ADD PUSH2 0x109 JUMP JUMPDEST SWAP2 POP POP SWAP3 POP SWAP3 SWAP1 POP JUMP JUMPDEST PUSH2 0x5A0 DUP1 PUSH2 0x168 PUSH0 CODECOPY PUSH0 RETURN INVALID PUSH1 0x80 PUSH1 0x40 MSTORE CALLVALUE DUP1 ISZERO PUSH2 0xF JUMPI PUSH0 DUP1 REVERT JUMPDEST POP PUSH1 0x4 CALLDATASIZE LT PUSH2 0x9B JUMPI PUSH0 CALLDATALOAD PUSH1 0xE0 SHR DUP1 PUSH4 0x6374CC00 GT PUSH2 0x64 JUMPI DUP1 PUSH4 0x6374CC00 EQ PUSH2 0x17D JUMPI DUP1 PUSH4 0x6FAB4536 EQ PUSH2 0x19B JUMPI DUP1 PUSH4 0xC8F33C91 EQ PUSH2 0x1B9 JUMPI DUP1 PUSH4 0xCD3DAF9D EQ PUSH2 0x1D7 JUMPI DUP1 PUSH4 0xDF136D65 EQ PUSH2 0x1F5 JUMPI PUSH2 0x9B JUMP JUMPDEST DUP1 PUSH3 0x8CC262 EQ PUSH2 0x9F JUMPI DUP1 PUSH4 0x700037D EQ PUSH2 0xCF JUMPI DUP1 PUSH4 0x2CD2A93E EQ PUSH2 0xFF JUMPI DUP1 PUSH4 0x5997BB37 EQ PUSH2 0x12F JUMPI DUP1 PUSH4 0x60217267 EQ PUSH2 0x14D JUMPI JUMPDEST PUSH0 DUP1 REVERT JUMPDEST PUSH2 0xB9 PUSH1 0x4 DUP1 CALLDATASIZE SUB DUP2 ADD SWAP1 PUSH2 0xB4 SWAP2 SWAP1 PUSH2 0x369 JUMP JUMPDEST PUSH2 0x213 JUMP JUMPDEST PUSH1 0x40 MLOAD PUSH2 0xC6 SWAP2 SWAP1 PUSH2 0x3AC JUMP JUMPDEST PUSH1 0x40 MLOAD DUP1 SWAP2 SUB SWAP1 RETURN JUMPDEST PUSH2 0xE9 PUSH1 0x4 DUP1 CALLDATASIZE SUB DUP2 ADD SWAP1 PUSH2 0xE4 SWAP2 SWAP1 PUSH2 0x369 JUMP JUMPDEST PUSH2 0x219 JUMP JUMPDEST PUSH1 0x40 MLOAD PUSH2 0xF6 SWAP2 SWAP1 PUSH2 0x3AC JUMP JUMPDEST PUSH1 0x40 MLOAD DUP1 SWAP2 SUB SWAP1 RETURN JUMPDEST PUSH2 0x119 PUSH1 0x4 DUP1 CALLDATASIZE SUB DUP2 ADD SWAP1 PUSH2 0x114 SWAP2 SWAP1 PUSH2 0x369 JUMP JUMPDEST PUSH2 0x22E JUMP JUMPDEST PUSH1 0x40 MLOAD PUSH2 0x126 SWAP2 SWAP1 PUSH2 0x3AC JUMP JUMPDEST PUSH1 0x40 MLOAD DUP1 SWAP2 SUB SWAP1 RETURN JUMPDEST PUSH2 0x137 PUSH2 0x243 JUMP JUMPDEST PUSH1 0x40 MLOAD PUSH2 0x144 SWAP2 SWAP1 PUSH2 0x3AC JUMP JUMPDEST PUSH1 0x40 MLOAD DUP1 SWAP2 SUB SWAP1 RETURN JUMPDEST PUSH2 0x167 PUSH1 0x4 DUP1 CALLDATASIZE SUB DUP2 ADD SWAP1 PUSH2 0x162 SWAP2 SWAP1 PUSH2 0x369 JUMP JUMPDEST PUSH2 0x248 JUMP JUMPDEST PUSH1 0x40 MLOAD PUSH2 0x174 SWAP2 SWAP1 PUSH2 0x3AC JUMP JUMPDEST PUSH1 0x40 MLOAD DUP1 SWAP2 SUB SWAP1 RETURN JUMPDEST PUSH2 0x185 PUSH2 0x25D JUMP JUMPDEST PUSH1 0x40 MLOAD PUSH2 0x192 SWAP2 SWAP1 PUSH2 0x420 JUMP JUMPDEST PUSH1 0x40 MLOAD DUP1 SWAP2 SUB SWAP1 RETURN JUMPDEST PUSH2 0x1A3 PUSH2 0x282 JUMP JUMPDEST PUSH1 0x40 MLOAD PUSH2 0x1B0 SWAP2 SWAP1 PUSH2 0x420 JUMP JUMPDEST PUSH1 0x40 MLOAD DUP1 SWAP2 SUB SWAP1 RETURN JUMPDEST PUSH2 0x1C1 PUSH2 0x2A7 JUMP JUMPDEST PUSH1 0x40 MLOAD PUSH2 0x1CE SWAP2 SWAP1 PUSH2 0x3AC JUMP JUMPDEST PUSH1 0x40 MLOAD DUP1 SWAP2 SUB SWAP1 RETURN JUMPDEST PUSH2 0x1DF PUSH2 0x2AD JUMP JUMPDEST PUSH1 0x40 MLOAD PUSH2 0x1EC SWAP2 SWAP1 PUSH2 0x3AC JUMP JUMPDEST PUSH1 0x40 MLOAD DUP1 SWAP2 SUB SWAP1 RETURN JUMPDEST PUSH2 0x1FD PUSH2 0x305 JUMP JUMPDEST PUSH1 0x40 MLOAD PUSH2 0x20A SWAP2 SWAP1 PUSH2 0x3AC JUMP JUMPDEST PUSH1 0x40 MLOAD DUP1 SWAP2 SUB SWAP1 RETURN JUMPDEST PUSH0 SWAP2 SWAP1 POP JUMP JUMPDEST PUSH1 0x7 PUSH1 0x20 MSTORE DUP1 PUSH0 MSTORE PUSH1 0x40 PUSH0 KECCAK256 PUSH0 SWAP2 POP SWAP1 POP SLOAD DUP2 JUMP JUMPDEST PUSH1 0x8 PUSH1 0x20 MSTORE DUP1 PUSH0 MSTORE PUSH1 0x40 PUSH0 KECCAK256 PUSH0 SWAP2 POP SWAP1 POP SLOAD DUP2 JUMP JUMPDEST PUSH1 0xA DUP2 JUMP JUMPDEST PUSH1 0x6 PUSH1 0x20 MSTORE DUP1 PUSH0 MSTORE PUSH1 0x40 PUSH0 KECCAK256 PUSH0 SWAP2 POP SWAP1 POP SLOAD DUP2 JUMP JUMPDEST PUSH1 0x2 PUSH0 SWAP1 SLOAD SWAP1 PUSH2 0x100 EXP SWAP1 DIV PUSH20 0xFFFFFFFFFFFFFFFFFFFFFFFFFFFFFFFFFFFFFFFF AND DUP2 JUMP JUMPDEST PUSH1 0x1 PUSH0 SWAP1 SLOAD SWAP1 PUSH2 0x100 EXP SWAP1 DIV PUSH20 0xFFFFFFFFFFFFFFFFFFFFFFFFFFFFFFFFFFFFFFFF AND DUP2 JUMP JUMPDEST PUSH1 0x5 SLOAD DUP2 JUMP JUMPDEST PUSH0 DUP1 PUSH1 0x3 SLOAD SUB PUSH2 0x2C1 JUMPI PUSH1 0x4 SLOAD SWAP1 POP PUSH2 0x302 JUMP JUMPDEST PUSH0 PUSH1 0x5 SLOAD TIMESTAMP PUSH2 0x2D0 SWAP2 SWAP1 PUSH2 0x466 JUMP JUMPDEST SWAP1 POP PUSH0 DUP2 PUSH1 0xA PUSH2 0x2E0 SWAP2 SWAP1 PUSH2 0x499 JUMP JUMPDEST SWAP1 POP PUSH1 0x3 SLOAD DUP2 PUSH2 0x2F0 SWAP2 SWAP1 PUSH2 0x507 JUMP JUMPDEST PUSH1 0x4 SLOAD PUSH2 0x2FD SWAP2 SWAP1 PUSH2 0x537 JUMP JUMPDEST SWAP3 POP POP POP JUMPDEST SWAP1 JUMP JUMPDEST PUSH1 0x4 SLOAD DUP2 JUMP JUMPDEST PUSH0 DUP1 REVERT JUMPDEST PUSH0 PUSH20 0xFFFFFFFFFFFFFFFFFFFFFFFFFFFFFFFFFFFFFFFF DUP3 AND SWAP1 POP SWAP2 SWAP1 POP JUMP JUMPDEST PUSH0 PUSH2 0x338 DUP3 PUSH2 0x30F JUMP JUMPDEST SWAP1 POP SWAP2 SWAP1 POP JUMP JUMPDEST PUSH2 0x348 DUP2 PUSH2 0x32E JUMP JUMPDEST DUP2 EQ PUSH2 0x352 JUMPI PUSH0 DUP1 REVERT JUMPDEST POP JUMP JUMPDEST PUSH0 DUP2 CALLDATALOAD SWAP1 POP PUSH2 0x363 DUP2 PUSH2 0x33F JUMP JUMPDEST SWAP3 SWAP2 POP POP JUMP JUMPDEST PUSH0 PUSH1 0x20 DUP3 DUP5 SUB SLT ISZERO PUSH2 0x37E JUMPI PUSH2 0x37D PUSH2 0x30B JUMP JUMPDEST JUMPDEST PUSH0 PUSH2 0x38B DUP5 DUP3 DUP6 ADD PUSH2 0x355 JUMP JUMPDEST SWAP2 POP POP SWAP3 SWAP2 POP POP JUMP JUMPDEST PUSH0 DUP2 SWAP1 POP SWAP2 SWAP1 POP JUMP JUMPDEST PUSH2 0x3A6 DUP2 PUSH2 0x394 JUMP JUMPDEST DUP3 MSTORE POP POP JUMP JUMPDEST PUSH0 PUSH1 0x20 DUP3 ADD SWAP1 POP PUSH2 0x3BF PUSH0 DUP4 ADD DUP5 PUSH2 0x39D JUMP JUMPDEST SWAP3 SWAP2 POP POP JUMP JUMPDEST PUSH0 DUP2 SWAP1 POP SWAP2 SWAP1 POP JUMP JUMPDEST PUSH0 PUSH2 0x3E8 PUSH2 0x3E3 PUSH2 0x3DE DUP5 PUSH2 0x30F JUMP JUMPDEST PUSH2 0x3C5 JUMP JUMPDEST PUSH2 0x30F JUMP JUMPDEST SWAP1 POP SWAP2 SWAP1 POP JUMP JUMPDEST PUSH0 PUSH2 0x3F9 DUP3 PUSH2 0x3CE JUMP JUMPDEST SWAP1 POP SWAP2 SWAP1 POP JUMP JUMPDEST PUSH0 PUSH2 0x40A DUP3 PUSH2 0x3EF JUMP JUMPDEST SWAP1 POP SWAP2 SWAP1 POP JUMP JUMPDEST PUSH2 0x41A DUP2 PUSH2 0x400 JUMP JUMPDEST DUP3 MSTORE POP POP JUMP JUMPDEST PUSH0 PUSH1 0x20 DUP3 ADD SWAP1 POP PUSH2 0x433 PUSH0 DUP4 ADD DUP5 PUSH2 0x411 JUMP JUMPDEST SWAP3 SWAP2 POP POP JUMP JUMPDEST PUSH32 0x4E487B7100000000000000000000000000000000000000000000000000000000 PUSH0 MSTORE PUSH1 0x11 PUSH1 0x4 MSTORE PUSH1 0x24 PUSH0 REVERT JUMPDEST PUSH0 PUSH2 0x470 DUP3 PUSH2 0x394 JUMP JUMPDEST SWAP2 POP PUSH2 0x47B DUP4 PUSH2 0x394 JUMP JUMPDEST SWAP3 POP DUP3 DUP3 SUB SWAP1 POP DUP2 DUP2 GT ISZERO PUSH2 0x493 JUMPI PUSH2 0x492 PUSH2 0x439 JUMP JUMPDEST JUMPDEST SWAP3 SWAP2 POP POP JUMP JUMPDEST PUSH0 PUSH2 0x4A3 DUP3 PUSH2 0x394 JUMP JUMPDEST SWAP2 POP PUSH2 0x4AE DUP4 PUSH2 0x394 JUMP JUMPDEST SWAP3 POP DUP3 DUP3 MUL PUSH2 0x4BC DUP2 PUSH2 0x394 JUMP JUMPDEST SWAP2 POP DUP3 DUP3 DIV DUP5 EQ DUP4 ISZERO OR PUSH2 0x4D3 JUMPI PUSH2 0x4D2 PUSH2 0x439 JUMP JUMPDEST JUMPDEST POP SWAP3 SWAP2 POP POP JUMP JUMPDEST PUSH32 0x4E487B7100000000000000000000000000000000000000000000000000000000 PUSH0 MSTORE PUSH1 0x12 PUSH1 0x4 MSTORE PUSH1 0x24 PUSH0 REVERT JUMPDEST PUSH0 PUSH2 0x511 DUP3 PUSH2 0x394 JUMP JUMPDEST SWAP2 POP PUSH2 0x51C DUP4 PUSH2 0x394 JUMP JUMPDEST SWAP3 POP DUP3 PUSH2 0x52C JUMPI PUSH2 0x52B PUSH2 0x4DA JUMP JUMPDEST JUMPDEST DUP3 DUP3 DIV SWAP1 POP SWAP3 SWAP2 POP POP JUMP JUMPDEST PUSH0 PUSH2 0x541 DUP3 PUSH2 0x394 JUMP JUMPDEST SWAP2 POP PUSH2 0x54C DUP4 PUSH2 0x394 JUMP JUMPDEST SWAP3 POP DUP3 DUP3 ADD SWAP1 POP DUP1 DUP3 GT ISZERO PUSH2 0x564 JUMPI PUSH2 0x563 PUSH2 0x439 JUMP JUMPDEST JUMPDEST SWAP3 SWAP2 POP POP JUMP INVALID LOG2 PUSH5 0x6970667358 0x22 SLT KECCAK256 PUSH4 0x5F0664D2 PUSH15 0x17CF381B2E99C5395E09EA68F16522 0xE4 SWAP15 SDIV PUSH5 0xE12C1B848E SDIV DUP5 PUSH5 0x736F6C6343 STOP ADDMOD OR STOP CALLER "
				},
				"gasEstimates": {
					"creation": {
						"codeDepositCost": "288000",
						"executionCost": "infinite",
						"totalCost": "infinite"
					},
					"external": {
						"REWARD_RATE()": "392",
						"earned(address)": "634",
						"lastUpdateTime()": "2469",
						"rewardPerToken()": "infinite",
						"rewardPerTokenStored()": "2513",
						"rewards(address)": "2825",
						"s_rewardToken()": "infinite",
						"s_stakeingToken()": "infinite",
						"stakedBalance(address)": "2891",
						"useRewardPerTokenPaid(address)": "2847"
					}
				},
				"methodIdentifiers": {
					"REWARD_RATE()": "5997bb37",
					"earned(address)": "008cc262",
					"lastUpdateTime()": "c8f33c91",
					"rewardPerToken()": "cd3daf9d",
					"rewardPerTokenStored()": "df136d65",
					"rewards(address)": "0700037d",
					"s_rewardToken()": "6374cc00",
					"s_stakeingToken()": "6fab4536",
					"stakedBalance(address)": "60217267",
					"useRewardPerTokenPaid(address)": "2cd2a93e"
				}
			},
			"storageLayout": {
				"storage": [
					{
						"astId": 10,
						"contract": "contracts/Staking.sol:Staking",
						"label": "_status",
						"offset": 0,
						"slot": "0",
						"type": "t_uint256"
					},
					{
						"astId": 467,
						"contract": "contracts/Staking.sol:Staking",
						"label": "s_stakeingToken",
						"offset": 0,
						"slot": "1",
						"type": "t_contract(IERC20)142"
					},
					{
						"astId": 470,
						"contract": "contracts/Staking.sol:Staking",
						"label": "s_rewardToken",
						"offset": 0,
						"slot": "2",
						"type": "t_contract(IERC20)142"
					},
					{
						"astId": 475,
						"contract": "contracts/Staking.sol:Staking",
						"label": "totalStakedTokens",
						"offset": 0,
						"slot": "3",
						"type": "t_uint256"
					},
					{
						"astId": 477,
						"contract": "contracts/Staking.sol:Staking",
						"label": "rewardPerTokenStored",
						"offset": 0,
						"slot": "4",
						"type": "t_uint256"
					},
					{
						"astId": 479,
						"contract": "contracts/Staking.sol:Staking",
						"label": "lastUpdateTime",
						"offset": 0,
						"slot": "5",
						"type": "t_uint256"
					},
					{
						"astId": 483,
						"contract": "contracts/Staking.sol:Staking",
						"label": "stakedBalance",
						"offset": 0,
						"slot": "6",
						"type": "t_mapping(t_address,t_uint256)"
					},
					{
						"astId": 487,
						"contract": "contracts/Staking.sol:Staking",
						"label": "rewards",
						"offset": 0,
						"slot": "7",
						"type": "t_mapping(t_address,t_uint256)"
					},
					{
						"astId": 491,
						"contract": "contracts/Staking.sol:Staking",
						"label": "useRewardPerTokenPaid",
						"offset": 0,
						"slot": "8",
						"type": "t_mapping(t_address,t_uint256)"
					}
				],
				"types": {
					"t_address": {
						"encoding": "inplace",
						"label": "address",
						"numberOfBytes": "20"
					},
					"t_contract(IERC20)142": {
						"encoding": "inplace",
						"label": "contract IERC20",
						"numberOfBytes": "20"
					},
					"t_mapping(t_address,t_uint256)": {
						"encoding": "mapping",
						"key": "t_address",
						"label": "mapping(address => uint256)",
						"numberOfBytes": "32",
						"value": "t_uint256"
					},
					"t_uint256": {
						"encoding": "inplace",
						"label": "uint256",
						"numberOfBytes": "32"
					}
				}
			},
			"userdoc": {
				"kind": "user",
				"methods": {},
				"version": 1
			}
		}
	}
}